:100000002CC03BC03AC039C038C037C036C004C26B
:1000100034C033C032C0F9C230C02FC02EC02DC092
:100020002CC02BC004C427C428C0BCC126C025C016
:1000300024C023C0A2C0ACC0B8C0C0C0D8C0F5C0E6
:100040004DC166C16EC17BC187C1E7C6E9C6EBC6BB
:10005000F0C6F4C6FAC6FCC601C711241FBECFEF16
:10006000D2E0DEBFCDBF11E0A0E0B1E001C01D9243
:10007000A736B107E1F737D5C0C7C2CF382F809177
:1000800056018111FCCFF89490E0E0915601F0E028
:10009000992339F0DB012D91BD01ED5EFE4F2083E8
:1000A00003C0ED5EFE4F3083941760F4209156013B
:1000B0002F5F2093560120915601203219F4789435
:1000C00081E008959F5F491700F79091C100906209
:1000D0009093C10078949091630192609093630132
:1000E0000895CF93DF9300D0CDB7DEB7F894809119
:1000F000580120910E01213009F040C190913B013F
:10010000992349F0E92FF0E0EB5BFE4F80839F5F7E
:1001100090933B010AC0982F92959F709093100185
:100120008F708093570120933B01809161019091E2
:100130006201909301018093000120913B0130E026
:100140008091100190E001962817390709F01DC130
:100150002091020130910301409104013A832983E7
:10016000E09157018E2F90E0FC013197EB30F105C3
:1001700008F0FCC0E65EFF4F099489818093460138
:100180008A818093470142E066E471E081E2F2C037
:1001900080914601809344018091470180934501FD
:1001A00042E066E471E082E2E5C0309345012093CD
:1001B000440140E060E070E083E0DCC08091090130
:1001C00090910A01909334018093330130933E0162
:1001D00020933D0180914601809305018091470164
:1001E0008093060142E066E471E084E2C3C080913E
:1001F000050180934601809106018093470180911B
:10020000110181708093480180910B018093490115
:1002100080915A0180934A0180915B0180934B0148
:1002200046E066E471E085E6A5C080914901882337
:1002300021F080911101816003C0809111018E7FB6
:10024000809311018091480180930B0180910B01F3
:1002500080910B01811103C081E080930B0180919B
:100260000B0138D3709338016093370180914601B8
:1002700080935A018091470180935B0180915A01DC
:1002800090915B01813D974030F080ED97E0909335
:100290005B0180935A0180915A0190915B01892BF7
:1002A00031F481E090E090935B0180935A0142D356
:1002B00060915A0170915B0182E090E08BD6609171
:1002C0000B0181E090E074D66091490180E090E0FC
:1002D0006FD644E066E471E086E44CC0809146014C
:1002E00080934401809147018093450180914401AE
:1002F00090914501AA2797FDA095809302019093C4
:100300000301A093040142E066E471E087E232C099
:1003100083B181708093460141E066E471E088E139
:1003200029C08091460180935A01809147018093B2
:100330005B0100D342E066E471E089E21BC080917A
:1003400009018093460180910A018093470142E0B0
:1003500066E471E08AE20EC080918100857080932E
:10036000460141E066E471E08BE104C040E060E0FA
:1003700070E08FE083DE10923B0107C010923B01DA
:1003800040E066E471E08EE079DE7894809163016C
:1003900081608093630110920E010F900F90DF91A6
:1003A000CF9108951F920F920FB60F9211248F9341
:1003B000809159018160809359018F910F900FBEF8
:1003C0000F901F9018959B01482F809137019091B5
:1003D0003801A0E0281739074A07E8F48091810026
:1003E000887F8093810061E070E080E0F4D4909396
:1003F00089008093880010928500109284001092EA
:100400005E0110925F011092600110923C01109207
:1004100008011092070108951F920F920FB60F92D4
:100420001124CF92DF92EF922F933F934F935F93DC
:100430006F937F938F939F93AF93BF93EF93FF93AC
:1004400080915E0190915F01A091600121E01816FA
:1004500019061A060CF020E080913F0190914001AE
:10046000A091410131E0181619061A060CF030E08F
:1004700080915E0190915F01A0916001BB27A7FD73
:10048000B095B7FF07C0B095A095909581959F4F07
:10049000AF4FBF4F6C01EA2E8091610190916201D4
:1004A0000196909362018093610180915E01909129
:1004B0005F01A091600180933F0190934001A09360
:1004C000410140913C0180915E0190915F01A091BA
:1004D00060016AE04602A0011124840F951FA11D4E
:1004E00057FDAA9580935E0190935F01A0936001F0
:1004F0008091640190916501A09166018C159D0524
:10050000AE0598F48091640190916501A091660117
:10051000211105C0A095909581959F4FAF4F809375
:100520005E0190935F01A0936001321721F0109259
:1005300008011092070120910201309103014091BE
:1005400004018091440190914501AA2797FDA0954F
:10055000281739074A0719F48E2DB60134DF809128
:1005600081008570C9F08E2DB60135D420918400AC
:100570003091850028173907A0F120918100287F4C
:100580002093810090938900809388000297909334
:1005900085008093840020C02091020130910301E6
:1005A000409104018091440190914501AA2797FD53
:1005B000A095281739074A07A1F080915C0125D43E
:1005C00060E070E080E007D4909389008093880019
:1005D0001092850010928400809181008560809344
:1005E0008100FF91EF91BF91AF919F918F917F918A
:1005F0006F915F914F913F912F91EF90DF90CF904E
:100600000F900FBE0F901F9018951F920F920FB66C
:100610000F9211242F923F924F926F927F928F925E
:10062000CF92DF92EF92FF922F933F934F935F937E
:100630006F937F938F939F93AF93BF93CF93DF93EA
:10064000EF93FF9380915E0190915F01A091600113
:1006500080959095A0958827A7FD83959927AA272F
:10066000D82FC0913C016090440170904501809169
:10067000020190910301A0910401882477FC8094E9
:10068000681A790A8A0AC0905E01D0905F01E090F2
:100690006001FF24E7FCF094F7FE08C0F094E094BA
:1006A000D094C094C11CD11CE11CF11C16014E2C2D
:1006B0008E2DB60190D39093890080938800CD2829
:1006C000CE28CF2809F45DC08C2F8095881F8827FD
:1006D000881F90915C01DD23F9F09F5F90935C018E
:1006E00090915C01983011F410925C01209102010C
:1006F00030910301409104012F5F3F4F4F4F2093F2
:100700000201309303014093040190913C0199232D
:10071000E1F1882301F12BC0915090935C019091FD
:100720005C019F3F19F497E090935C0120910201D6
:100730003091030140910401215031094109209376
:100740000201309303014093040190913C019923ED
:10075000E1F0882361F08091070190910801892BD5
:10076000A1F08091070190910801019705C0809147
:100770000701909108010196909308018093070169
:1007800004C0109208011092070180915C013DD3D2
:1007900061147104810459F18091640190916501A3
:1007A000A0916601281639064A0618F010923C01FD
:1007B00009C080910B011614170418040CF08195E0
:1007C00080933C012091070130910801C30177FE1D
:1007D00004C088279927861997092817390754F0E4
:1007E00080910B01D111819580933C0103C0842D30
:1007F000B101E9DDFF91EF91DF91CF91BF91AF9111
:100800009F918F917F916F915F914F913F912F9128
:10081000FF90EF90DF90CF908F907F906F904F90F0
:100820003F902F900F900FBE0F901F9018951F9222
:100830000F920FB60F9211248F939F938091C00057
:100840008C719091C600811106C09093580181E08F
:1008500080930E0109C090910E01892B80930E01A7
:1008600080910E0110920E019F918F910F900FBEFB
:100870000F901F9018951F920F920FB60F92112490
:100880008F939F93EF93FF93E0915D01F0E0ED5E16
:10089000FE4F80818093C60090915D01809156014A
:1008A00098130AC08091C1008F7D8093C10010927F
:1008B0005D011092560105C080915D018F5F8093AC
:1008C0005D01FF91EF919F918F910F900FBE0F905F
:1008D0001F90189594E6899FA001112498E020E0CC
:1008E00030E060E070E0660F771F220F331F220FA9
:1008F000331FFA01E4E0FE9FE12DFF2711242E0FA4
:100900003F1F440F551F440F551FFB0131962E17F3
:100910003F0720F02E1B3F0B6E5F7F4F915019F762
:100920007695679588EC689FB0011124882777FD3C
:100930008095089560915A0170915B0180E094E682
:10094000A2D220936401309365014093660108951B
:1009500010925D01109256018AE090E09093C500DC
:100960008093C4001092C00086E08093C20088E9A2
:100970008093C100089587E480937C008FE8809382
:100980007A0083E080937E00089589B190910F01F1
:10099000982790930F01F89483FF22C090910F0144
:1009A00093FF1BC0909112019A3068F4209144018A
:1009B00030914501232B89F020914401309145016C
:1009C0002150310906C0209102013091030140916C
:1009D00004013093450120934401109212010EC08E
:1009E000909112019A3039F420E030E830934501BB
:1009F0002093440103C09F5F9093120182FF23C0A4
:100A000090910F0192FF1CC0909142019A3070F4B6
:100A100020914401309145012F3F3F4F89F02091B3
:100A20004401309145012F5F3F4F06C020910201E4
:100A3000309103014091040130934501209344011A
:100A4000109242010EC0909142019A3039F42FEF7A
:100A50003FE7309345012093440103C09F5F90938B
:100A6000420178948C7080930F0108958091630106
:100A700082FF16C08091610190916201209139013D
:100A800030913A01821B930B8536910558F1809184
:100A900063018B7F809363018BB18F768BB908954F
:100AA000809163018823F1F080916101909162014E
:100AB00090933A018093390180916301846080931F
:100AC00063018091630181FF06C05C985F9A809109
:100AD00063018D7F05C05F985C9A809163018E7F72
:100AE00080936301089534DF46DF8CE98093B3007F
:100AF00082E08093B00095E09093B1008093700005
:100B00001092800098E09093810080936F008FEFA7
:100B10009FEE90930A018093090182E090E044D215
:100B200090935B0180935A0105DF81E090E034D21D
:100B300080930B0180E090E02FD2882329F08091F0
:100B4000110181608093110180910B01C3DE7093CC
:100B500038016093370186E084B917B881EF8AB90C
:100B60008BB18C608BB989B18C7080930F010DDFD4
:100B700000916101109162016090610170906201C9
:100B8000789483E08093630140E1C42ED12CE12C62
:100B900050E1852E912CA12CB12C44244A946FEE67
:100BA000562E80910E0181119CDAF894C09161015A
:100BB000D0916201789480910001909101019E0191
:100BC000281B390BC901893E934058F080913B01A5
:100BD000882339F010923B0140E066E471E080E048
:100BE0004DDA44DF8091110181FF19C080910C0121
:100BF00090910D019E01281B390BC901893E93403C
:100C0000F8F0F89480918100857011F488E0FDD0AF
:100C1000809111018D7F80931101789411C0809192
:100C2000110180FF0DC080918100857049F4809191
:100C30001101826080931101D0930D01C0930C01CA
:100C4000CE0186199709449710F09FDE3E01CE0130
:100C5000801B910B843F9140C0F08091590180FD31
:100C600015C080917A0086FD11C080917C0080774C
:100C700080937C0080917C00876080937C008091D1
:100C80007A00806480937A0001C0E8018091590164
:100C900080FD02C08E0185CF809159018E7F8093A7
:100CA00059016091780070917900CB014097813EA5
:100CB000934028F050920A0140920901EBCF8091B5
:100CC000090190910A0134E0660F771F3A95E1F728
:100CD0008F3F9F4E29F470933601609335011BC0FE
:100CE0000091350110913601CB01A0E0B0E09801F0
:100CF000442737FD4095542FBC01CD01621B730B77
:100D0000840B950BA501940109D1200F311F30935D
:100D1000360120933501809135019091360124E010
:100D2000969587952A95E1F7853131E0930758F03C
:100D30008C3623E0920770F02DED33E0E8E3FFEF0F
:100D40006FE471E00DC024E131E0E0E2F3E067E13F
:100D500071E006C02BE633E0E4E6F0E066E970E01F
:100D600040E0281B390B410980E084D09B01482FCB
:100D700097E04595379527959A95D9F72E0F3F1F00
:100D800030930A01209309016091050170910601D9
:100D90006115710509F47ECF809133019091340182
:100DA000F901E81BF90B9F01442737FD409588277F
:100DB00077FD80955FD04E2D96017ED09B01482F08
:100DC00080913D0190913E01820F931F90934501C8
:100DD000809344015FCF9B01482F80913701909110
:100DE0003801A0E082179307A40710F450E006C072
:100DF000209137013091380140E050E06CE47DEC07
:100E00008DE190E08BD0C901089590E08830910584
:100E100050F5FC01EB5DFF4F09945D985E9A10C0A0
:100E20005D985E9A08C08BB18F798BB98BB18BB905
:100E300002C05E985D9A29982A9A08955E985D9AF4
:100E400085B1897F85B985B113C05E985D9A08C068
:100E50008BB18F798BB98BB18BB902C05D985E9ADB
:100E60002A98299A08958BB18F798BB985B1897F9A
:100E700085B90895DB01582F13D0529F800DA49F90
:100E8000800D11240895699F9001899F402D799FBD
:100E9000300D411D112497FF0895361B470B08950F
:100EA000A29FB001B39FC001A39F01D0B29F700D5C
:100EB000811D1124911D0895042E87FB16F40094C2
:100EC0000CD047FD04D00FD007FC07D05EF440954E
:100ED000309521953F4F4F4F0895809570956195BE
:100EE0007F4F8F4F089559E1AA27991B0AC0111C03
:100EF000AA1F991F1216A307940718F0121AA30B22
:100F0000940B661F771F881F5A9589F76095709517
:100F10008095212D3A2F492F11240895052E97FBF6
:100F200016F400940FD057FD05D014D007FC02D062
:100F300046F408C050954095309521953F4F4F4F4E
:100F40005F4F089590958095709561957F4F8F4F75
:100F50009F4F0895A1E21A2EAA1BBB1BFD010DC0D5
:100F6000AA1FBB1FEE1FFF1FA217B307E407F50759
:100F700020F0A21BB30BE40BF50B661F771F881F35
:100F8000991F1A9469F760957095809590959B01CB
:100F9000AC01BD01CF010895F999FECF12BC81BD0E
:100FA000F89A992780B50895A8E1B0E042E018C00A
:100FB000262FF999FECF12BC81BDF89A815000B45A
:100FC000021639F01FBA20BD0FB6F894FA9AF99AB2
:100FD0000FBE08950196272FECDFEACFDC01862FA4
:100FE000E82FF999FECF12BC05C0E1BDF89AE39550
:0E0FF00000B40D924150C8F70895F894FFCF59
:00000001FF
